:020000041000EA
:10000000002008205D0100101B0100101D010010E0
:100010001101001011010010110100101101001058
:100020001901001019010010190100101F01001022
:10003000110100101901001021010010230100100E
:100040001101001011010010110100101101001028
:100050001101001011010010110100101101001018
:100060001101001011010010110100101101001008
:1000700011010010110100101101001011010010F8
:1000800011010010110100101101001011010010E8
:1000900011010010110100101101001011010010D8
:1000A00011010010110100101101001011010010C8
:1000B00011010010110100101101001011010010B8
:1000C00011010010110100101101001011010010A8
:1000D0001101001011010010110100101101001098
:1000E0001101001011010010110100101101001088
:1000F0001101001011010010110100101101001078
:100100001101001011010010110100101101001067
:10011000EFF30580103800BE00BE00BE00BE00BE7A
:1001200000BE00BEF2EB887188070710AC0707100D
:10013000A001001090A31AE7D3DEFFFF42012110B7
:10014000FF0100003C2D0700793512AB4FF0000095
:100150001E49086006C881F3088810474FF05040D8
:10016000006810B14FF00000F2E70DA40ECC00299A
:1001700002D000F012F8F9E71549164A002000E015
:1001800001C19142FCD11449884714498847144958
:10019000884700BEFDE701C901C29A42FBD3704700
:1001A000AC07071010010020D8270020742E07107C
:1001B0000000082000000820742E071000100820FE
:1001C00000100820000000007047000008ED00E06B
:1001D000D8270020EC670020CDC90110510B00107A
:1001E00091C90110F8B500BF064B0749C91A89101B
:1001F00048BF0131491003D0044B0BB101481847E7
:10020000704700BFD8270020D8270020000000003A
:1002100008B5054B1BB105490548AFF30080BDE8A3
:100220000840FFF7E1BF00BF00000000BC3B00201A
:10023000A878021070B588B0044601F0C5F8234BC9
:100240001B782BB9192008B0BDE8704000F080BFC2
:100250001F4805F013F900221E4901231C48009194
:10026000114605F083F901230C220021184800945F
:1002700005F07CF9184B1B7883B902AC2346174A6A
:1002800007CA03C31A7001231822002110480094E2
:1002900005F06CF90E4805F095F9D3E71CF05AFF0C
:1002A0000028EAD01CF046FF064600201DF0B6FDEF
:1002B000054600201EF080F802AC0190182133465C
:1002C0002046074A00951CF0B1FADCE7D867002009
:1002D000D85C0020A8780210E8670020BC780210E3
:1002E000B07802102DE9F0434FF000080E460546A5
:1002F0005C1CE4B211461A46E31D83B003F4FC73A0
:1003000002AFADEB030D8DF808800DF109000DF182
:10031000080921F041FE23464A4631462846CDF8D9
:1003200000801EF003FF0437BD46BDE8F08300BF28
:100330002DE9F04118F0E8FE002900F02F814FF47C
:100340007A72002327F070FA044640F22D11DFF88C
:1003500010830026D8E90023A21A63EB43038A42E4
:1003600073F100030BD3B14D2B78012B40F22881A0
:10037000AF4B1878AF4B1B68984700232B704FF09A
:100380005043AD4D5F68287807F0010217460028FA
:1003900040F0E580002A40F089814FF050432F70F3
:1003A0006A785F6807F48071C7F30027002A40F07D
:1003B000B780002940F07E814FF050436F70AA78DB
:1003C0005F6807F48041C7F38037002A40F08980D6
:1003D000002940F074814FF05043984CAF70217861
:1003E0005D6805F08002C5F3C015002962D1002ABE
:1003F00040F0EE804FF05043257062785D6805F064
:100400004001C5F38015002A00F0CD80002900F0DE
:100410009D814FF050436570A2785D6805F0200122
:10042000C5F34015002A40F0E780002940F01A810A
:100430004FF05043A570E2785D6805F01001C5F3F8
:100440000015002A40F0DD80002940F014814FF0B3
:100450005043E57022795D6805F00801C5F3C005D9
:10046000002A40F0D380002940F00E814FF0504325
:10047000257162795D6805F00401C5F38005002AE5
:1004800040F0C980002940F008814FF05043657169
:10049000A2795D6805F00201C5F34005002A40F02D
:1004A000BF80002940F09E80A5710A20BDE8F04180
:1004B00018F05ABC002A9DD11546614A614813685C
:1004C00061490133EEB20570136030460968884710
:1004D00000235E4A635516700A20BDE8F04118F00B
:1004E00043BC00297FF477AF594B9B78002B00F079
:1004F000EB80D8F80030E21AD8F8043063EB4303FD
:10050000B2F5967F73F10003494B03D21A78022AA1
:1005100000F017810121454AC8E900461170D8E072
:1005200000297FF449AF4A4B5B78002B00F0D48060
:10053000D8F80030E21AD8F8043063EB4303B2F580
:10054000967F73F100033A4B03D21A78012A00F028
:10055000F3800121354AC8E900461170C1E0002A44
:100560007FF41BAF3A4B1878002800F0BD80D8F814
:100570000030E21AD8F8043063EB4303B2F5967FFB
:1005800073F100032A4B03D21A78002A00F0CF80BF
:100590000121264AC8E900461170A9E02D4BA3FBB2
:1005A0000034A409D1E600293FF433AF274B187873
:1005B000012800F0A480284B01201B68984728E7F9
:1005C0007FF4DBAE1A4B1878244B1B689847D4E6AF
:1005D0001E4B1878002800F08E801F4B00201B68EF
:1005E000984707E7194B1878062800F09C801A4BAB
:1005F00006201B68984757E700297FF419AF0225AA
:100600005BE700297FF423AF032556E700297FF439
:100610002DAF042551E700297FF437AF05254CE7BE
:1006200000297FF441AF062547E700BFDD670020C2
:10063000DC670020B04C0020BC4C0020085D00208E
:10064000C04C0020A6160020045D0020DE670020BC
:10065000A8160020D34D6210145D0020B44C002079
:10066000102B00203A4B187802284CD0394B02202E
:100670001B689847DCE6364B1878032847D0354B83
:1006800003201B689847E2E6314B1878042842D0D3
:10069000304B04201B689847E8E62D4B1878052856
:1006A0003DD02C4B05201B689847EEE62A4B1B6873
:1006B000984772E6284B01201B6898477CE6264B3A
:1006C00002201B68984786E6244B02201B68984747
:1006D000234B02221A707EE6204B01201B689847AC
:1006E0001F4B01221A7067E61C4B1B6898471C4B76
:1006F00000221A7051E61B4B1B6898476DE7194B97
:100700001B68984757E7174B1B689847AEE7154B90
:100710001B689847B3E7134B1B689847B8E7114B22
:100720001B689847BDE70F4B1B6898475FE70E496A
:100730000A7801320A70DBE70B490A7801320A7045
:10074000CFE709490A7801320A70C2E70125B4E609
:10075000DE670020145D0020B84C0020B44C00205F
:10076000DC670020105D0020DD6700200000000035
:100770002DE9F0412DED068B4479804684B0002CA4
:1007800000F08880032C00F0C68079A7D7E90067C5
:10079000DFED798A08F1180845460024DFED779AE5
:1007A000B0EE689A35F8023F07EE903AF8EE677AB5
:1007B00087EEA98A18EE100A27F02EF832463B463B
:1007C00019F01CFA38B107EE904AF8EEE77A78EEA5
:1007D000888AA8EE279A01341A2CE3D1F5EEC08A54
:1007E000F1EE10FA49DDC9EE287AF3EE09AA87EE98
:1007F000AAAAB5EEC0AAF1EE10FA3EDB5CA7D7E9D3
:100800000067DFED5D8A0024DFED5C9AB0EE689A48
:1008100038F8023F07EE903AF8EE677A87EEA98A39
:1008200018EE100A26F0F8FF32463B4619F0E6F9BA
:1008300068B107EE904AB8EEE77AC7EE2A7A77EE0B
:10084000CA7A67EEA77A78EE888AA8EE279A0134EA
:100850001A2CDDD1F5EEC08AF1EE10FA4BDC002146
:10086000474B1AEE100A1B6898470123454C23702A
:1008700004B0BDEC068BBDE8F081424C237813B187
:10088000414B1B6898470023237004B0BDEC068BD6
:10089000BDE8F081054604200094012398F8041077
:1008A0000DF10E028DF80E0055F8060B1EF03EFC01
:1008B00098F80410009414232A46D8F800001EF07B
:1008C0003DFCD8F81230D8F806005BBAD8F80A1008
:1008D000D8F80E20C8F81230D8F8163040BA49BA05
:1008E00052BA5BBAC8F80600C8F80A10C8F80E2059
:1008F000C8F8163049E789EE287AB5EE407AF1EE6D
:1009000010FA2BD4F1EEC77AB2EE047A67EE877A4A
:1009100017EE901AA4E700250446042098F8041066
:10092000009501230DF10F028DF80F0054F81A0BFA
:100930001EF0FCFB98F80410009534232246D8F8EA
:1009400000001EF0FBFB434608F13400997EDA7E7E
:10095000D9769A7602339842F8D116E717EE100A44
:1009600026F076FF07EE900ACEE700BFAFF30080D7
:100970009A9999999999A93F0000000000FF7F4733
:10098000CC630020E5670020D06300202DE9F84308
:100990004FF000094FF00108194D1A4EEF1C15F8E1
:1009A000014B204617F0E8FB49EC444000220121AE
:1009B000204617F0CDFBBD4206F8018BEFD14FF07A
:1009C00000094FF00108104D104EEF1D15F8014FB2
:1009D000204617F0D1FB49EC44400022204601217B
:1009E00017F0B6FBBD424FF0010406F8018FEDD1C0
:1009F000192017F0C1FB192344EC4430BDE8F883FB
:100A000050510410BC4C002047510410075D0020D9
:100A100008B50C490C481EF063FB03211C2017F09D
:100A200079FB03211D2017F075FB002201211C20FA
:100A300017F08EFBBDE80840002201211D2017F0B1
:100A400087BB00BF801A0600EC20002010B5224BA7
:100A500004461B78052B06D8DFE803F01B1E212473
:100A6000032702F049FB1D4B93F82A0002F026FFF2
:100A7000052C06D8DFE804F01C21262B030802F021
:100A8000E9FA174B1C7010BD01F06AFD144B1C7085
:100A900010BD01F00BF9E6E701F066FFE3E701F0B6
:100AA000E3FAE0E702F0CEF9DDE701F0B1FDDAE7C5
:100AB00001F0A6F80A4B1C7010BD01F00BFF084BAB
:100AC0001C7010BD01F086FA054B1C7010BD02F0C1
:100AD00069F9034B1C7010BDD0670020AC160020D4
:100AE000E067002070B50026174C184D82B000203A
:100AF0001DF0AAF90DF10701D0B1012200201DF06F
:100B0000AFF9FF2328B19DF807300D2B12D00A2B27
:100B100010D040F2FE3122688A42E8DC511C0020ED
:100B20002160AB541DF090F90DF107010028E4D1CC
:100B300002B070BD2368002BD9D00448EE5403F0F6
:100B400039FF2660D3E700BF7C3B002098320020AD
:100B50002DE9F04F1526142513248DB000F010FC5C
:100B6000CF48FFF767FB1EF043F9CE4800F02CFB9F
:100B7000CD48FFF75FFBFFF709FF1223CDE90156D0
:100B800011221021C948009400F01EFB1D221C21D7
:100B9000C74800F019FB182317221621C54800F09A
:100BA00013FB1B231A220F21C34800F00DFB002268
:100BB000C248114600F008FB08220121BF4800F09E
:100BC00003FB0E220221BD4800F0FEFABC4CE61DDC
:100BD0006542291914F8012FBA4800F0F5FAB44219
:100BE000F7D14FF001084FF4FA7006AC18F0BCF8DA
:100BF000B548FFF71FFB21460020ADF818801CF018
:100C0000B1FAB24B002583F8008000F0D3FB4FF41B
:100C1000FA7000F09DFAAE48FFF70CFBFFF7F8FE04
:100C2000AC4800F0D1FAAC48FFF704FBAB48AC4E3F
:100C3000074640223C2380210096057304F096FD70
:100C4000FF21384604F012FCA64BA748A74D83F8B5
:100C50000080FFF7EFFAA648FFF7ECFA95F82B00B3
:100C600002F086FCA34800F0AFFAA348FFF7E2FACF
:100C700040F20133224620213046ADF818300223DD
:100C8000FFF730FB192018F06FF8022709234FF601
:100C9000047A2246202130468DF81A303B46ADF8C2
:100CA0001870FFF71FFB192018F05EF820213B4653
:100CB00022463046ADF818A0FFF714FB192018F0B3
:100CC00053F806232246202130468DF8183043463B
:100CD000FFF708FB192018F047F84FF448734FF45A
:100CE0008872DFF8789220213046ADF81820A9F8F4
:100CF000043022463B46C9F80060FFF7F3FA19209A
:100D000018F032F83B46224699F80410D9F8000052
:100D1000ADF818A0FFF7E6FA192018F025F8202101
:100D2000764800F051FA7648FFF784FA6B4804F0F1
:100D3000A5FB744B18220A21684800933B4604F037
:100D400015FC664804F03EFC6F48FFF773FA02F0AA
:100D5000E3F900F055FF6D4800F036FA6C48FFF7F4
:100D600069FA02F0C3FC6B4800F02EFA6A48FFF7FC
:100D700061FA6A481BF0F8FFDFF8E4A1684800F068
:100D800023FA6848FFF756FA9AF80030002B00F073
:100D90000A81DFF8D081DFF8D0B1634F00214FF036
:100DA000FF301CF059FA98F80030002B40F00C810D
:100DB0009BF80030002B40F00F81FFF7B9FAE87B79
:100DC0003B78834203D0FFF741FEEB7B3B70484604
:100DD000FFF7CEFC414804F051FB544B1B68984789
:100DE000534B1B68984795F82D30002B4DD0514A36
:100DF000514B166893F900301821504A009620464E
:100E00001BF014FD012308224A213448009404F009
:100E1000ADFB4B4A4B4B166893F9003018214A4AF8
:100E2000009620461BF002FD012310224A212B4888
:100E3000009404F09BFB454A454B166893F900303B
:100E40001821444A009620461BF0F0FC18224A2143
:100E500001232248009404F089FB95F82C30059377
:100E60001CF068F9064600201DF0A6FA18213A4A3F
:100E7000059B0190009620461BF0D8FC0123202200
:100E80004A211648009404F071FB144804F09AFBC0
:100E900018F03AF90346002900F0918066E000BF9F
:100EA000C8780210D0780210E0780210E8780210BA
:100EB00018790210387902106079021084790210D2
:100EC0004751041098790210A8790210E8670020B1
:100ED000AC790210B0790210BC790210D85C002005
:100EE000EC200020D8670020C4790210AC16002046
:100EF000D0790210DC790210F0790210F879021032
:100F0000147A0210207A02102C7A0210387A021019
:100F1000487A0210507A0210607A0210954300104D
:100F20006C7A0210847A0210D0670020005D0020E5
:100F3000D4630020C04C0020A6160020987A02102E
:100F4000D05C0020A5160020A07A0210D45C0020FE
:100F5000A4160020A87A0210B07A0210604C00207B
:100F6000AB160020E7670020E66700204FF47A7296
:100F7000002326F059FC264A264913680968C01A3E
:100F8000884214D3244E0B44307813601DF03AFF8E
:100F9000337883F001033370FFF7A4FD9AF8003033
:100FA000002B7FF4FBAE00200DB0BDE8F08FFFF703
:100FB00099FD9AF80030002B7FF4F0AEF3E7174A62
:100FC000A2FB03308009D6E795F82A0002F076FCF0
:100FD000002388F80030EBE6002495F82A00104D35
:100FE00002F06CFC0F488AF8004004F047FA0A212E
:100FF000022318220B48009504F0B8FA094804F0BF
:10100000E1FA322017F0B0FE2146204618F01EFB10
:10101000483C002080160020CB670020D34D621092
:101020008C7A0210D85C002010B44FF47A7401223C
:101030000449054B0C6005485DF8044B1A7000F03C
:10104000C3B800BF80160020E7670020BC7A0210FA
:1010500010B4FA2401220449044B0C6004485DF8E2
:10106000044B1A7000F0B0B880160020E76700202B
:10107000C87A021010B440F6C41401220449054B8A
:101080000C6005485DF8044B1A7000F09DB800BF75
:1010900080160020E7670020D87A021010B44FF4C1
:1010A0007A7401220449054B0C6005485DF8044B35
:1010B0001A7000F089B800BF80160020E767002092
:1010C000E87A0210002940D02DE9F84307460E4681
:1010D0000024DFF8788098F800300BB9BDE8F88379
:1010E0001CF038F80028F9D01CF024F80028F5D0BE
:1010F00000201CF093FE0028F0D04FF050431D68F4
:10110000002DEBD129464FF0FF301CF0A5F8284602
:101110001CF058FF83B2A6EB0409391973B1994545
:1011200028BF994628464A461CF02CFF4C442846C6
:101130001CF0E0FEA642CED8BDE8F883012017F0EF
:1011400013FEA642C7D8BDE8F8837047DB670020CE
:1011500070B5064617F0D8FF174B1B7803B970BD62
:1011600005460C461BF0F6FF0028F8D04FF0504320
:101170001B68002BF3D14FF47A734FF0FF316FF0FF
:101180000042E6FB0354A94272EB04033CBF0D4648
:1011900014460A4E00214FF0FF301CF05DF801208C
:1011A00017F0E2FD736A9C42F4D8B26AAA42D6D222
:1011B0009C42EFD070BD00BFDB67002000000B40F9
:1011C00000487047841600200FB42DE9F04FB3B0EB
:1011D00017F09AFF002935D000234FF47A7226F0D9
:1011E00023FB034602AFC0215D4A38461BF01EFBBD
:1011F0003DABC0F1C00104463C9A381801931BF086
:101200002BFB031E19DB1819BF2820D9002340F639
:101210000D228DF8C730534BADF8C5201A78BF2684
:101220001ABB514D2C68B4F5805F74D301224F4B2B
:101230001A704F4B1B78002B42D133B0BDE8F04FF2
:1012400004B070474B4AA2FB00239B09CAE7861CE7
:10125000BF2EDBD840F60D2300223B520DEB0603D8
:101260001A72404B1A78002ADBD0434C2268EFF305
:10127000108172B6D2E8CF5F0120002DFAD1C2E80A
:10128000450F002DF6D1BFF35F8FDFF8DC8093F8B8
:101290000090D8F800506160B5F5805F4DD3012211
:1012A000324B1A70B9F1000FC3D000232268C2E894
:1012B0008F3F636883F310882D4B1B78002BBCD0C5
:1012C0001BF048FF0028B8D01BF034FF0028B4D032
:1012D00000201CF0A3FD0028AFD04FF050431D6844
:1012E000002DAAD100201CF06DFE83B2741B791969
:1012F0004BB19C4228BF1C460020224625441CF0CE
:1013000041FEAE42EED800201CF0F4FD33B0BDE843
:10131000F04F04B07047C4F580594E45B04628BF21
:10132000C846164839462044424620F035FE44441B
:101330004E452C607FF67DAF78E7C5F5805A56455F
:10134000B34628BFD3460D48394628445A4620F0B4
:1013500023FE5D445645C8F80050A3D99FE700BF5F
:10136000F47A0210D9670020CC5C0020DA670020F4
:10137000DB670020D34D6210C44C0020CC4C002011
:1013800010B5094C237823B1BDE810400748FFF79A
:101390001BBF074817F01AFA012304482370BDE861
:1013A0001040FFF711BF00BFD9670020FC7A021080
:1013B000C44C00200122024B02481A70FFF704BF00
:1013C000DB670020087B021038B5184D184A2B78CF
:1013D000002814BF0446144693B1164B1A68EFF365
:1013E000108172B6D2E8CFCF0120BCF1000FF9D145
:1013F000C2E84C0FBCF1000FF4D1BFF35F8F59600E
:10140000234620210C4A0D481BF010FA2B783BB1E3
:10141000084B00221968C1E88F2F5B6883F310889E
:101420002146BDE838400648FFF7CEBED967002008
:10143000187B0210C44C0020207B02108416002070
:10144000247B0210002839D070B51D4D2B7803B9CC
:1014500070BD044620F016FE06461BF07BFED0B998
:101460002B78002BF4D01BF075FE0028F0D01BF079
:1014700061FE0028ECD000201CF0D0FC0028E7D052
:101480004FF050431B68002BE2D1BDE870400221B1
:101490000C48FFF717BE1BF04DFE0028E0D00020DF
:1014A0001CF0BCFC0028DBD04FF050431B68002B25
:1014B000D6D131462046FFF705FED1E7704700BF81
:1014C000DB670020307B02102DE9F04FDFF810823F
:1014D00099B098F80030002B40F0A880794F002593
:1014E00097F800B0DFF8FC91DFF8FCA1764EBBF175
:1014F000000F71D03368EFF3108272B6D3E8CF0FCC
:1015000001210028FAD1C3E8401F0028F6D1BFF31B
:101510005F8FD9F8004097F800B0A54272603ED3C3
:101520006A4B1A78BBF1000F06D17AB998F80030EF
:101530009BB919B0BDE8F08F634B00211868C0E873
:101540008F1F5B6883F31088002AEFD06048FFF795
:1015500079FF98F80030002BEBD01BF0FBFD002842
:1015600040F09A8098F80030002BE2D01BF0F2FD9A
:101570000028DED01BF0DEFD0028DAD000201CF0B1
:101580004DFC0028D5D04FF050431B68002BD0D124
:101590000221504819B0BDE8F04FFFF793BD641B1E
:1015A000602C28BF6024684622460AEB050120F023
:1015B000F3FCBBF1000F06D000233268C2E88F3F76
:1015C000736883F3108898F80030BBB9254497F806
:1015D00000B0BBF1000F8DD1D9F80040A5429FD2D9
:1015E000641B602C28BF6024684622460AEB050174
:1015F00020F0D2FC98F80030002BE7D01BF0AAFDB9
:101600000028E3D01BF096FD0028DFD000201CF05E
:1016100005FC0028DAD04FF050431B68002BD5D1D1
:1016200021466846FFF74EFD2544D0E71BF092FDAA
:10163000F8B998F80030002B3FF450AF1BF08AFD4A
:1016400000283FF44BAF1BF075FD00283FF446AF78
:1016500000201CF0E3FB00283FF440AF4FF0504364
:101660001B68002B7FF43AAF02211A48FFF72AFDCE
:1016700034E71BF05FFD0028DBD000201CF0CEFB20
:101680000028D6D04FF050431B68002BD1D10F213A
:101690001148FFF717FDCCE71BF04CFD00283FF485
:1016A00061AF00201CF0BAFB00283FF45BAF4FF0A5
:1016B00050431B68002B7FF455AF0D210748FFF7FF
:1016C00001FD4FE7D9670020C44C0020DA670020F5
:1016D000447B0210307B0210347B0210587B0210D6
:1016E000DB670020CC5C0020CC4C00200048704719
:1016F00000520410004870475851041038B548B9DA
:10170000164B174D1A684FF4417312886A801448BB
:101710002B8038BD03281FD8104B114D53F82040A3
:10172000204620F0AFFCC0B21F28844628BF4FF0EF
:101730001F0C50B100232A46601E013310F8011F10
:10174000DBB29C4522F8021FF7D80CF10103DBB293
:101750005B0043F44073DAE7002038BD1C1700201B
:10176000B42F0020704700BF704700BF0021064A19
:10177000064B92F800C0064883F8281080F800C095
:10178000187B1070704700BFC4670020AC160020A3
:10179000C56700202DE9F0413C4D82B0284620F07D
:1017A00071FC014601EB410149000139C9B218221F
:1017B000C1F1400100950223354803F0D7FE15F82A
:1017C0000E4CDFF8E08005EB440414F8143C314F74
:1017D00058F8230020F056FC14F8133C064657F83E
:1017E000230020F04FFC2C4BF6B20093B31D53FAAC
:1017F00080F303EB43046400013CC4F34604C4F1EA
:101800004004E4B2214601230022214803F0AEFE49
:1018100015F80E1C012305EB410111F8141C0022E0
:1018200058F821101A48009104F1190103F09EFEA6
:1018300006211E3406FB01413C2415F80E0C012341
:1018400005EB400515F8130C002257F82000134D46
:1018500000900F4803F08AFE22461E2300210C4808
:10186000009403F011FE0E480223CDE90005362254
:101870002521074803F056FE8023602122460448B4
:10188000009403F001FE02B0BDE8F081C416002010
:10189000D85C002058520410987B0210A07B0210E4
:1018A000A4570410145204102DE9F04106461A4DB5
:1018B0001A4F15F8043C84B0DFF8688000933E703E
:1018C000174F2A4698F80030287E802101F050FFFB
:1018D0003B783246009315F8083C029515F8051C34
:1018E00005EB43030191A91D039133F80E0C15F884
:1018F000071CAB7D01F02EFC15F8043C90210093F1
:101900003B782A46287E01F033FF3B7888F8003088
:1019100004B0BDE8F08100BFBE16002030170020E3
:10192000C4670020C567002001280DD0022804D01C
:1019300088B10B4B033898727047094AD37A062B4B
:101940009CBF0133D3727047054AD37A002BFAD07B
:10195000013BD37270470122014BDA73704700BF1D
:10196000AC160020FF2270B5134C144B94F867504E
:1019700084B01A700DB104B070BDA27B104B04F19D
:1019800012061B78009294F82A003246802101F05A
:10199000EFFE04F11803A17A0393637B04EB41018A
:1019A000CDE90136009588882B462A46E17A01F078
:1019B000D1FB257604B070BDAC1600203017002096
:1019C000C56700202DE9F041854C86B0237E002BB1
:1019D00000F0968007EE900AF5EEC07AF1EE10FA6C
:1019E000804E814F337894F866203B7000F1EF8091
:1019F000B1EE047A27EE877ABDEEC77A17EE105A59
:101A0000002A00F0BE80012A7DD0DFF8E881D8F8F6
:101A10000020AA4272D0754900930291627BA37A9A
:101A20000192D4F81200724A0490881D1278039033
:101A3000898804EB43039888ADF8141094F8283093
:101A4000E17A01F087FBA37C9DF81020934209D036
:101A5000002A76D133B11A469021A37B94F82A004C
:101A600001F046FEE37C9DF81120934209D0002A44
:101A70006FD133B11A469021A37B94F82A0001F06C
:101A800037FE237D9DF81220934209D0002A50D1C1
:101A900033B11A469021A37B94F82A0001F028FE66
:101AA000637D9DF81320934209D0002A59D133B1A8
:101AB0001A469021A37B94F82A0001F019FEA37D19
:101AC0009DF81420934208D05ABB33B11A46902196
:101AD000A37B94F82A0001F00BFEE37D9DF815200E
:101AE000934209D0002A44D133B11A469021A37BF6
:101AF00094F82A0001F0FCFD33783B70C8F80050E0
:101B000006B0BDE8F081257B07EE105AB8EEC77A23
:101B100067EE277AFDEEE77A17EE902AAD1A657325
:101B200073E7A37B802194F82A0001F0E1FDA37DF7
:101B3000CBE7A37B802194F82A0001F0D9FD237D17
:101B4000A6E7A37B802194F82A0001F0D1FDA37CB5
:101B500080E7A37B802194F82A0001F0C9FDE37C93
:101B600087E7A37B802194F82A0001F0C1FD637D03
:101B70009DE7A37B802194F82A0001F0B9FDE37D65
:101B8000B2E7042D3FF641AFDFE805F01B150F0962
:101B9000030003230822337084F8282035E7042348
:101BA0000822337084F828202FE7042300223370A2
:101BB00084F8282029E705230022337084F82820A0
:101BC00023E706230022337084F828201DE7012A2A
:101BD00002D04FF0FF3518E74FF0FF32257B9DE72D
:101BE000AC160020C4670020C5670020BE16002088
:101BF000301700202C170020704700BF704700BF2F
:101C0000134A144910B41160134A14491448154C6E
:101C10001160154A154904601548164C1160164AA2
:101C2000164904601648174C1160174B174A18499B
:101C300004601848184C11601B7B1849184A04604E
:101C4000184C19480B70137004605DF8044B704712
:101C5000D463002065170010105D00206519001086
:101C6000005D002095170010B44C002029190010C9
:101C7000045D0020A9180010B84C0020F91B0010CA
:101C8000145D002069170010AC160020D0630020FE
:101C90006D170010B04C0020FD1B0010C567002020
:101CA000C4670020C5190010CC63002010B5084A95
:101CB000084B12F8040C82B01B7800908021107E33
:101CC000144601F055FD0023A37102B010BD00BF02
:101CD000BE160020C5670020704700BF704700BFD8
:101CE00007EE100AB5EEC07AF1EE10FAF8B5284DFD
:101CF0002A7B2C7C14FB02F446D407EE904AF8EEC3
:101D0000E77A67EE877AFDEEE77A17EE900A214BC5
:101D1000241A1B7813B3204E3378A34201D13470B8
:101D2000F8BD1E4F8021AB7B3A7895F82A0001F070
:101D3000DFFC2A7B902194FBF2FC02FB1C422A442C
:101D4000927C0CEB4C0C02EB8C02D2B2AB7B95F884
:101D50002A003A7001F0CCFC3470F8BD94FBF2F626
:101D600002FB16422A44927C06EB460602EB8602F0
:101D70000A4F094ED2B29021AB7B95F82A003A70F7
:101D800001F0B6FC3470F8BD4FF0FF30BFE700BF84
:101D9000AC160020E567002031170020CA6700203C
:101DA0000448054A837B8021127890F82A0001F0CC
:101DB0009FBC00BFAC160020CA6700202DE9F0418F
:101DC0003C4D82B0284620F05DF9014601EB41010F
:101DD00049000139C9B21822C1F14001009502231E
:101DE000354803F0C3FB15F80E4CDFF8E08005EB37
:101DF000440414F8143C314F58F8230020F042F901
:101E000014F8133C064657F8230020F03BF92C4BFE
:101E1000F6B20093B31D53FA80F303EB430464005E
:101E2000013CC4F34604C4F14004E4B2214601235A
:101E30000022214803F09AFB15F80E1C012305EB44
:101E4000410111F8141C002258F821101A48009181
:101E500004F1190103F08AFB06211E3406FB01413F
:101E60003C2415F80E0C012305EB400515F8130C66
:101E7000002257F82000134D00900F4803F076FB26
:101E80002246282300210C48009403F0FDFA0E4856
:101E90000223CDE9000536222D21074803F042FB3D
:101EA0008023582122460448009403F0EDFA02B042
:101EB000BDE8F081C4160020D85C0020CC5204108C
:101EC000987B0210607C0210A45704108852041002
:101ED00010B502460B4884B0417B037B90F80AC0E2
:101EE00000F1180403940191009390F82830C17A0E
:101EF00000EB4C0C12300290BCF8040001F02AF9FF
:101F000004B010BDAC160020012809D0022806D16B
:101F1000074A137B032B9CBF013313737047704731
:101F2000034A137B012BF9D9013B1373704700BFA0
:101F3000AC16002010B584B0052807D8DFE800F003
:101F40000D12303C030801221E4B9A7204B010BDE2
:101F500002221C4B9A7204B010BD0322194BDA7393
:101F600004B010BD1748C37A012BEFD9417B164A44
:101F700090F80AC0047B013B01910094D9B2C17270
:101F800090F8283000EB4C0C00F118041230127855
:101F900003940290BCF8040001F0DCF804B010BD1A
:101FA0000848C37A062BD1D8417B90F80AC0047B3D
:101FB000054A01910133E0E70022024B9A7204B016
:101FC00010BD00BFAC160020DE670020704700BFC8
:101FD000704700BF10B41049104C114B114A0C60EF
:101FE0001A601148114C124B124A04601A601249CF
:101FF000124C134B134A0C601A601348134C144BC9
:10200000144A04601A6014491448154B154A5DF8C7
:10201000044B08601A607047005D0020BD1D001071
:10202000D4630020D91C0010045D0020D11E0010D4
:10203000105D0020DD1C0010145D0020D11F001079
:10204000B44C0020351F0010B04C0020091F0010B8
:10205000B84C0020CD1F0010CC630020E11C001004
:10206000D0630020A11D001010B5064A064C802147
:10207000A37B127894F82A0001F03AFB0023237620
:1020800010BD00BFCA670020AC1600200122014B22
:102090001A707047E6670020014B1860704700BF58
:1020A000383C0020704700BF052811D8DFE800F059
:1020B000150319444811324A137833B13148013BB2
:1020C000DBB23149C05C1370087000222F4B1A70CC
:1020D000704702222E4B9A72704700222C4BDA7303
:1020E000704770B5284C2B49227802EB8203980088
:1020F00001EB83031D793DBB244D93F805E028785F
:1021000093F806C086450AD90CEB000303EB830362
:1021100001EB830E9EF804609B00042E26D0184924
:102120000B78072B07D8604420700020154C2870CE
:10213000E25401330B7070BD0022154B9A72704748
:102140000122134B9A7270479B6813B10C300844FC
:1021500098470B4A13782BB10A49013BDBB2C95CA3
:10216000137021700022094B1A7070BDDEF8082030
:10217000002AE0D0BDE870400C33C818104700BFFB
:10218000C7670020403C0020C6670020D1670020C0
:10219000AC1600203817002007EE900AF5EEC07A42
:1021A000F1EE10FA474A13680DD4B2EE047A67EEE6
:1021B000877AFDEEE77A591C17EE900A01D0C31A10
:1021C00006D110607047581C79D0DB434FF0FF30C8
:1021D000F0B53D493D4C91F800C00CEB8C0104EB8F
:1021E000810191F804E04FEA8C01BEF1060F17D887
:1021F000DFE80EF018040443164F2D00614404EB91
:102200008101CD6865B12C78E41A8B7924B29C42A7
:1022100005DB4B79013BA342A8BF2346DBB22B7001
:102220001060F0BD2A4D2E7833441BB2002B0BDB1F
:10223000614404EB810191F805E00EF1FF3E9E45FB
:10224000A8BF9E465FFA8EFE85F800E0E8E761448D
:1022500004EB8101CE68002EE2D01E4C27688C79F9
:10226000F55DEB1A1BB2A34205DB4C79013C9C42A5
:10227000A8BF1C46E4B2F455D2E7614404EB8101E7
:10228000C9680029CCD0002BD4BF002301230B70D8
:10229000C6E7614404EB8104E668002EC0D00D4916
:1022A0000F68A179F55DEB1A1BB28B4205DB6179F2
:1022B00001399942A8BF1946C9B2F155B0E718468D
:1022C0007FE700BF34170020C667002038170020C2
:1022D000D1670020383C00204FF0FF32014B1A60DC
:1022E000704700BF34170020024B93F82B0001F019
:1022F00033B900BFAC16002000F00EBF10B5084C7B
:102300007022084920461FF047FE002001F024F902
:1023100000F002FF94F82A00BDE8104001F0CEBAA8
:10232000AC160020FC520410024B93F82A0001F076
:10233000C5BA00BFAC160020704700BF704700BF91
:10234000704700BF704700BF07222DE9F04786B0F5
:102350000021009280237B4803F096F87A4B7B4E55
:102360001C7804EB840556F8258006EB850540466D
:102370001FF088FE00EB400149000139C1F346011E
:10238000012300226F48CDF80080C1F1400103F025
:10239000EDF82B79A700062B46D8DFE803F08FC4B1
:1023A000484845530400DFF8B0910DF10C080A22AB
:1023B0004146D9F800001DF0FDF840461FF062FECE
:1023C00000F10E052DB2A5EB8505614B4035EDB250
:1023D000072229465B4800933C44012303F0C6F8DA
:1023E00006EB8404012307225648CDF8008005F14E
:1023F000540103F0BBF8E368B3B1D9F800102269C7
:102400005B5C52F8234020461FF03CFE022318225A
:1024100001464C48009401EB410149000139C9B221
:10242000C1F1400103F0A2F806B0BDE8F0873C44DA
:1024300006EB8404E368002BF6D01A78236953F87E
:102440002240E0E7DFF810910DF10C080A22414626
:10245000D9F800001DF0AEF840461FF013FE00F161
:102460000E052DB2A5EB8505394B4035EDB207229F
:102470002946344800932744012303F077F806EBFC
:102480008706012307222F48CDF8008005F154016B
:1024900003F06CF8F368002BC6D0D9F800000A22CC
:1024A0004146185C1DF086F840461FF0EBFD022304
:1024B000014618222348CDF80080ACE73C4406EBE7
:1024C00084046379002BAFD04FF00E090027DFF8AA
:1024D0008C8016E005EB850556F825200123009237
:1024E00005214A46174803F041F862790AF10103D1
:1024F000DBB29A4207F1010709F1080994D9072FC5
:1025000092D0A57998F800305FFA87FA5544534580
:10251000EDB2DFD10F4B4A46009300210123094859
:1025200003F024F8D6E73C4406EB8404E368002B70
:102530003FF47AAF03AC0A22214618781DF03AF82E
:1025400061E700BFD85C0020C66700203817002074
:102550006C7C0210687C0210383C0020D16700209F
:10256000002310B41348144C144A15490460116038
:102570001448154C154A1649046011601548164C4C
:10258000164A1749046011601648174C174A184933
:10259000046011601748184C184A1949046011600A
:1025A00018481949194A03700B7013705DF8044BF1
:1025B000704700BF005D002049230010D463002055
:1025C00045230010045D002099200010105D0020BC
:1025D000A5200010145D00203D230010B44C002005
:1025E000A9200010B04C002041230010B84C00205E
:1025F00039230010CC63002099210010D063002003
:10260000D9220010C7670020C6670020D1670020CC
:10261000704700BF704700BF704700BF10B507EE9E
:10262000900A2DED028B9FED148AA7EEC88AFCEE6E
:10263000C87A0B4682B0CDED017A08EE903A0F4C85
:102640009DF8042094F8681094F82A0001F018F915
:1026500028EE288AFCEEC87ACDED017A94F869104C
:1026600094F82A009DF8042002B0BDEC028BBDE86E
:10267000104001F005B900BF0000FE42AC1600207A
:102680002DE9F0413C4D82B028461FF0FBFC01468D
:1026900001EB410149000139C9B21822C1F14001E1
:1026A00000950223354802F061FF15F80E4CDFF863
:1026B000E08005EB440414F8143C314F58F8230033
:1026C0001FF0E0FC14F8133C064657F823001FF0F7
:1026D000D9FC2C4BF6B20093B31D53FA80F303EBF5
:1026E00043046400013CC4F34604C4F14004E4B272
:1026F000214601230022214802F038FF15F80E1C64
:10270000012305EB410111F8141C002258F8211097
:102710001A48009104F1190102F028FF06211E3425
:1027200006FB01413C2415F80E0C012305EB400586
:1027300015F8130C002257F82000134D00900F4895
:1027400002F014FF22461E2300210C48009402F0E0
:102750009BFE0E480223CDE90005362225210748BD
:1027600002F0E0FE8023602122460448009402F03B
:102770008BFE02B0BDE8F081C4160020D85C0020BA
:10278000B0530410987B0210C87C0210A4570410A8
:102790006C53041070B50646144C84B0A17B237BA7
:1027A00004F1120500912A4694F82A00802100F0D5
:1027B000DFFF04F11803A17A0393637B04EB41016B
:1027C000CDE90135237B3246009394F82830888880
:1027D000E17A00F0BFFCA67B237B94F82A009021CD
:1027E0002A46009600F0C4FF04B070BDAC1600206D
:1027F00070B500250F4C84B0A07B237B04F112063A
:102800000090324694F82A00802100F0B1FF04F1D4
:102810001803A17A0393637B04EB4101CDE90136F0
:10282000009588882B462A46E17A00F093FC2576AD
:1028300004B070BDAC160020052807D8DFE800F012
:10284000070B12191D0302220E4B9A7270470222C7
:102850000C4BDA7370470B4AD37A002BF6D0013B4E
:10286000D3727047074AD37A062BEFD80133D3725D
:1028700070470022034B9A7270470122014B9A72F3
:10288000704700BFAC16002010B50F4C94F86C30A8
:102890001BB994F86D3063B910BD94F86A2094F8B0
:1028A000681094F82A0000F0EBFF94F86D30002BCC
:1028B000F2D094F86B2094F8691094F82A00BDE8DF
:1028C000104000F0DDBF00BFAC160020704700BF15
:1028D000704700BF10B41049104C114B114A0C60E6
:1028E0001A601148114C124B124A04601A601249C6
:1028F000124C134B134A0C601A601348134C144BC0
:10290000144A04601A6014491448154B154A5DF8BE
:10291000044B08601A607047005D0020812600109B
:10292000D463002015260010045D002095270010B8
:10293000105D0020F1270010145D00201926001002
:10294000B44C002039280010B04C0020D1280010D1
:10295000B84C0020CD280010CC6300201D260010AC
:10296000D06300208928001010B5104C82B0A27BE3
:10297000237B009294F82A0004F11202802100F0D7
:10298000F7FE94F86A2094F8681094F82A0000F092
:1029900077FF94F86B2094F8691094F82A0000F0FF
:1029A0006FFF0023237602B010BD00BFAC160020DD
:1029B000704700BF704700BF10B5094A094C80211D
:1029C000A37B94F82A00127800F092FE064B94F84C
:1029D0002A001A788021A37BBDE8104000F088BE51
:1029E000CF670020AC160020CE67002007EE100A4B
:1029F000B5EEC07AF1EE10FA2DE9F0414E4D2A7B8A
:102A00002C7C14FB02F400F1948007EE904AF8EE5F
:102A1000E77A67EE877AFDEEE77A17EE900A474B82
:102A2000241A1B78002B4DD0454E3378A34246D054
:102A3000444FDFF814813A7898F800309A4275D004
:102A40001A468021AB7B95F82A0000F051FE2A7BC4
:102A5000902194FBF2FC02FB1C422A44927C0CEB7A
:102A60004C0C02EB8C02D2B2AB7B95F82A0088F8B2
:102A7000002000F03DFE3A788021AB7B95F82A00DB
:102A800000F036FE2B7B621C92FBF3F003FB10225E
:102A900094FBF3F32A44927C03EB430398F8001071
:102AA00002EB8302D2B291423A7002D90C32D2B216
:102AB0003A709021AB7B95F82A0000F019FE347033
:102AC000BDE8F08194FBF2F702FB17422A44927CA6
:102AD00007EB47071C4E02EB8702D2B29021AB7B7B
:102AE00095F82A00327000F003FE2B7B621C3078D0
:102AF00092FBF3F603FB162294FBF3F32A44927C39
:102B000003EB430302EB8302D2B20E4990420A70F8
:102B100002D90C32D2B20A70094E9021AB7B95F8E3
:102B20002A0000F0E5FD3470BDE8F08188F800204F
:102B3000A2E74FF0FF3072E7AC160020E5670020F7
:102B4000F81C0020CD670020CC67002010B5094A92
:102B5000094C8021A37B94F82A00127800F0C8FD6C
:102B6000064B94F82A001A788021A37BBDE8104018
:102B700000F0BEBDCC670020AC160020CD67002061
:102B80002DE9F0413C4D82B028461FF07BFA01460A
:102B900001EB410149000139C9B21822C1F14001DC
:102BA00000950223354802F0E1FC15F80E4CDFF8E1
:102BB000E08005EB440414F8143C314F58F823002E
:102BC0001FF060FA14F8133C064657F823001FF074
:102BD00059FA2C4BF6B20093B31D53FA80F303EB72
:102BE00043046400013CC4F34604C4F14004E4B26D
:102BF000214601230022214802F0B8FC15F80E1CE2
:102C0000012305EB410111F8141C002258F8211092
:102C10001A48009104F1190102F0A8FC06211E34A3
:102C200006FB01413C2415F80E0C012305EB400581
:102C300015F8130C002257F82000134D00900F4890
:102C400002F094FC22462C2300210C48009402F050
:102C50001BFC0E480223CDE900053622322107482D
:102C600002F060FC8023542122460448009402F0C4
:102C70000BFC02B0BDE8F081C4160020D85C002037
:102C800024540410987B0210447E0210A4570410B0
:102C9000E0530410F0B507461E4C1F4E1F4D85B083
:102CA000A37B327894F82A00802100F021FD2A7855
:102CB000A37B94F82A00802100F01AFD617BA37A9F
:102CC0000191217B04EB4303009104F1180103916E
:102CD00004F1120102913A469888E17A94F828307A
:102CE00000F038FAA27CE37C0C3A0C3B94F82A0002
:102CF000D2B22B709021A37B327000F0F9FC9021AE
:102D0000A37B2A7894F82A0005B0BDE8F04000F0D3
:102D1000EFBC00BFAC160020CF670020CE670020BC
:102D2000052807D8DFE800F0070B12191D0302225F
:102D30000E4B9A72704704220C4BDA7370470B4AA1
:102D4000D37A012BF6D9013BD3727047074AD37A65
:102D5000062BEFD80133D37270470022034B9A72CF
:102D600070470122014B9A72704700BFAC160020D9
:102D700001280AD0022800D07047084B1A7B032A8A
:102D800002D81A7C01321A747047044B1A7B012A4C
:102D9000FAD91A7C013A1A74704700BFAC160020A9
:102DA000704700BF0322124B124910B41960124B36
:102DB00012491348134C1960134B1449046014480A
:102DC000144C1960144B154904601548154C1960D2
:102DD000154B164904601648164C1960164B0460D2
:102DE000164C17481A7304605DF8044B704700BF17
:102DF000D4630020B1290010105D0020B929001013
:102E0000005D0020812B0010B44C0020212D00100B
:102E1000045D0020952C0010B84C0020A12D00105E
:102E2000145D0020B5290010D06300204D2B001048
:102E3000B04C0020712D0010AC160020ED290010C0
:102E4000CC63002010B5134A134C8021A37B127869
:102E500094F82A0000F04CFC104B80211A7894F86A
:102E60002A00A37B00F044FC0D4B80211A7894F8D3
:102E70002A00A37B00F03CFC0A4B80211A7894F8CE
:102E80002A00A37B00F034FC002204232276237363
:102E900010BD00BFCC670020AC160020CD6700201D
:102EA000CF670020CE670020704700BF704700BF8B
:102EB00007EE100ADFED057AE7EE677AFCEEE77AB7
:102EC00017EE903A024A1370704700BF0000FE42AE
:102ED000FA1C002038B5044609480A4DC37A9021EF
:102EE000013303EB430204EB8204E4B22B78224665
:102EF00090F82A0000F0FCFB034B1C7038BD00BFAB
:102F0000AC160020FA1C0020F91C0020024608B56F
:102F10000948002390F80BC080210CF1010C0CEB48
:102F20004C0C02EB8C02D2B290F82A0000F0E0FBCD
:102F3000FF22024B1A7008BDAC160020F91C0020BD
:102F400001280DD0022804D088B10B4B03389872A9
:102F50007047094AD37A062B9CBF0133D37270475E
:102F6000054AD37A002BFAD0013BD3727047052271
:102F7000014BDA73704700BFAC160020704700BFEA
:102F800070B53C2486B02B4D2B4E22462C230021BD
:102F90002A48009402F078FA022336223221CDE941
:102FA0000056264802F0BEFA2246802354212348C8
:102FB000009402F069FA224B03AD0A2229461878E0
:102FC0001CF0F8FA28461FF05DF804460A341D4943
:102FD000A4EB840404F0FF04009104F140010123F8
:102FE00002221648C9B202F0C1FA04F17C010123A1
:102FF000124802220095C9B202F0B8FA124B1878B2
:10300000FF2814D00A2229461CF0D4FA28461FF0C3
:1030100039F8014601EB410149000139C9B20223E7
:10302000182206480095C1F1400102F09FFA06B04F
:1030300070BD00BFA45704104C7E0210D85C002065
:10304000FA1C0020547E0210F91C0020704700BFBB
:10305000704700BF124B134910B41960124B13494B
:103060001348144C1960144B144904601448154C4F
:103070001960154B154904601548164C1960164A1D
:10308000164B174904601748174C1960927B174B71
:103090000460174C17481A7004605DF8044B7047C1
:1030A000D4630020A92E0010105D0020AD2E00106A
:1030B000005D0020812F0010B44C0020412F001033
:1030C000045D0020D52E0010B84C00207D2F00108C
:1030D000145D00200D2F0010AC160020D0630020DE
:1030E00051300010B04C00204D300010FA1C002070
:1030F000B12E0010CC630020044B054A0548802106
:103100001B78127890F82A0000F0F2BAFA1C00201E
:10311000F91C0020AC16002030B40B4C0B4D20687D
:103120006168A268E3680FC520696169A269A36A42
:1031300007C5E069216A626A054D0FC5E06A216B27
:10314000626B07C530BC7047DA160020341D0020C2
:10315000881D00202DE9F04F4FF0000883B0DFF804
:1031600040A3C0F3072EADF80400C0B25AF820A067
:1031700001310E9CDFF82C9301EB41010AEB810138
:10318000BEF1010F0F9D19F800A0C4F80080A4F84B
:103190000480C9B2DDE90C7C00F00D81BEF1020FA4
:1031A00000F08180B748CEEBCE084044805C4FEA07
:1031B000CE090144581F0228C9B200F28D81B24BDA
:1031C000434413F802E0DFF8E0820EEB4E0318F8F8
:1031D00013304FEA4E090B44DBB24FF0020B0327CA
:1031E000237009EB0E0308EB43035A789B780A44DB
:1031F0000B446270A370BCF1000F31DD2378BCF189
:10320000010F03F10C0323702AD06378BCF1020F85
:1032100003F10C03637023D0022F21D0A378BCF1FB
:10322000030F03F10C03A3701ADD032F18D0E3780A
:10323000BCF1040F03F10C03E37011D0042F0FD085
:103240002379BCF1050F03F10C03237108D0052F7E
:1032500006D0BCF1060F18BF062763790C336371E3
:103260003B4662782078013B82423CBF227060700E
:10327000012B61D06278A078824237D8022BF1D03E
:1032800094F803C060453BD8032BEBD020798445EC
:1032900040D8052BE6D194F805C08445E2D284F8E5
:1032A00004C06071DEE7082B00F00081DFF8D481F4
:1032B000053B904498F80E80DBB24144C9B2002827
:1032C00040F01781022B704B134493F80EE000F28C
:1032D00017814FF0010ADFF8D0810EEB4E0318F88A
:1032E00013300EFA0AF90B44DBB276E7022B60705A
:1032F000A2705ED0A07894F803C062786045C3D90C
:10330000032B84F802C0E070ACD05FFA80FC207917
:103310008445BED9052BE07084F804C0A2D1607941
:1033200084459FD9207184F805C09BE7BCF1000F4C
:1033300002DD23780C332370544BA3FB0123DB08FD
:1033400003EB4303A1EB8303BAF1000F2DD0504AE6
:1033500052F82310BEF1070F9CBF4E4B53F82E605E
:103360000023CE4408EB4E0E1EF80B202B70A3F169
:103370005533A3FB0203DB0803EB4303A2EB8302F9
:10338000454B284653F822400F221EF001FA2846EA
:103390001EF078FE3146C0F10F0228461EF0F8F903
:1033A000032F18DC03B0BDE8F08F3C4A52F823101D
:1033B000D0E7C2B256E7082B00F091803148053BB8
:1033C0001044C079022B0144C9B211D82E4B1344CA
:1033D00093F807E0F7E628461EF054FE0246214621
:1033E0002846C2F10F0203B0BDE8F04F1EF0D0B97D
:1033F0004FF00809244BA9EB0E094B4413F802E0E7
:10340000002F07F1FF3B62DDDFF89C800EEB4E03DF
:1034100018F81320012F0A4408EB430322704FEAE7
:103420004E0983D05A78022F0A4462703FF4E3AE0B
:103430009A78032F0A44A2703FF4DDAEDA78042FA5
:103440000A44E2703FF4D7AE1A79052F0A4422717C
:103450003FF4D1AE5B79BCF1000F0B4463717FF791
:10346000FFAE2378BCF1010F03F10C0323703FF48E
:10347000F7AE6378BCF1020F03F10C0363707FF4C5
:10348000CDAEEDE6501D0020FC1C0020ABAAAAAA80
:103490002C55041054540410745404105C5504103A
:1034A000A4540410E8540410FC540410264B134494
:1034B000DB790B44D9B2254B0EF1FF3ECEEBCE0E9D
:1034C0007344002F13F802E007F1FF3B9CDCDFF8A8
:1034D00084804FEA4E092FE7082B8BD1EBE71A4B7C
:1034E00013449B7B0B44D9B2184B134493F80EE062
:1034F00086E7022B0BD8154B134493F80EE062E6D7
:10350000002F07F1FF3B05DD4FF0010A7CE74FF08C
:1035100010096FE7BCF1000F0CDD0D4BDFF83480B4
:10352000A3FB0123DB0803EB4303A1EB83034FEA77
:103530004E090CE70C22B1FBF2F3DFF8188002FB16
:1035400013134FEA4E0902E7501D0020FC1C002017
:10355000ABAAAAAAFC54041010B1012800D07047ED
:10356000162340EC4030172340EC4030704700BF3A
:1035700038B50446162014F0FFFD172014F0FCFDAA
:1035800016214FF0010343EC4410172243EC442072
:103590000CB3012C1AD0124C0221182014F0BAFDE1
:1035A00047F61221204615F085FE206B0D4D00F4E4
:1035B00040402863002320460821012215F0FCFE2C
:1035C0002046BDE83840002115F02EBF43EC4010E6
:1035D00043EC4020DFE744EC401044EC4020DAE7C5
:1035E000008007400090074070B50C460021164649
:1035F0001D4682B000F00F0C44EA0C0C0323084671
:1036000001AA8DF804C08DF805608DF806501AF0F7
:10361000E1FE902C0DD00C4A01A90DF1070C11F818
:10362000010B93699B06FCD461451060F7D102B091
:1036300070BD002DEFD00328EDD1044A0449136872
:103640000E7001331360E6E700800740D45C002071
:10365000A416002000B58E460021944600F00F000D
:1036600083B060F04F0001AA8DF8040003230846E0
:103670008DF806C08DF805E01AF0ACFE074A01A9E6
:103680000DF1070C11F8010B93699B06FCD4614501
:103690001060F7D103B05DF804FB00BF0080074065
:1036A00000B500F00F0183B061F04F018DF80410F8
:1036B00000214FF07B0C084601AA03238DF805C0BA
:1036C0008DF806101AF086FE074A01A90DF1070CC5
:1036D00011F8010B93699B06FCD461451060F7D18A
:1036E00003B05DF804FB00BF0080074000F03CBE63
:1036F0009029F8B50C4616461D461BD0194FFB7B8A
:10370000042B03D097F82C30012B0ED02B463246D9
:103710002146FFF769FFFB7B042B02D097F82C3082
:1037200003B9F8BD902C00D1B5B93046BDE8F840DA
:1037300000F0FEBF002BE1D00B4B0A4F1A700B4A72
:10374000136801331360FB7B042BDFD097F82C3018
:10375000012BDBD1002DE8D029463046BDE8F840EA
:1037600000F0C4BFAC160020A5160020D05C0020DD
:103770002DE9F84F9DF8287033B390290646884606
:10378000144623D0DFF8ECA0D51814F8019BB9F14A
:10379000000F17D09AF80F30042B03D09AF82C3072
:1037A000012B0CD03B464A4641463046FFF71CFFF2
:1037B0009AF80F30042B05D09AF82C3013B14846F4
:1037C00000F0B6FFA542E0D1BDE8F88F0FBBDFF8EF
:1037D000A480D51814F8017BBFB198F80F30042BE2
:1037E00003D098F82C30012B0CD000233A469021BE
:1037F0003046FFF7F9FE98F80F30042B05D098F803
:103800002C3013B1384600F093FFAC42E2D1BDE852
:10381000F88FDFF864A0DFF86490DFF85880D518DF
:1038200014F801BBBBF1000F1FD0D9F800308AF8A3
:1038300000B00133C9F8003098F80F30042B03D0E2
:1038400098F82C30012B0CD03B465A46902130463C
:10385000FFF7CAFE98F80F30042B06D098F82C30EA
:103860001BB15846394600F041FFAC42D8D1BDE803
:10387000F88F00BFAC160020A5160020D05C0020F9
:1038800070B50D4C0D46E37B1646042B03D094F81F
:103890002C30012B0AD032462946FFF7DBFEE37BB2
:1038A000042B02D094F82C3003B970BD3146284661
:1038B000BDE8704000F05CBFAC16002008B5FFF713
:1038C000EFFEBDE8084000F075BF00BF2DE9F047EE
:1038D00000241A264FF001088EB0052015F038FE9E
:1038E000664B674A1B78CDE90364CDE90144069332
:1038F000CDF81480009412780F210792614A1B239F
:1039000012780546089260483246FDF75DFC214674
:103910005E481BF05DFC002840F09F801BF020FCFF
:103920000446002840F09180584859491BF05EFC3D
:103930000746002800F09580214654481BF016FCED
:10394000534952481BF09CFCB0F10009C0F28D8035
:10395000504B30460621AD00A3FB055A14F0DAFBAC
:1039600006211B2014F0D6FB06210F2014F0D2FBF9
:103970004FF4803309F101020A934FEAC91343EA75
:10398000023323F0C0430B93434A444B2146CDE915
:103990000C323E484A460AAB1BF064FD32462146D3
:1039A0000223CDF8008039481BF016FD434621461E
:1039B0000F22CDF8008035481BF00EFD4FEADA35B6
:1039C0002246214631481BF0D5FC2B022F494FEAF5
:1039D000DA5A9BB243EA0A4309F01F02C1F8D82021
:1039E0002046C1F8C8301BF0B1FB4FF0A0431921AD
:1039F0002B4E1C605E609C60196124494FF480521C
:103A00000B68284843F001030B6021461DF00AFEB5
:103A1000254B2A4683F80080244B49461C70244BD2
:103A200024481C70244B1C60244B1C60244B1C60DD
:103A3000244B1C60244B1C80244B1C800223FDF76C
:103A4000C3FB38460EB0BDE8F0872148FDF7BCFB4C
:103A5000002738460EB0BDE8F0871E48FDF7B4FBDE
:103A6000F6E71D48FDF7B0FBF2E7214607481BF0DB
:103A7000A1FB49461948FDF7A7FBE9E7D4670020F9
:103A8000A41D0020D6670020BC7E0210000020503C
:103A90008C5504103BC637BE1A3C2020000006405F
:103AA000100020505C3C0020D3670020D767002026
:103AB000D5670020F47F0210503C0020543C0020C9
:103AC0005C4C0020583C0020BE670020BC670020F2
:103AD0006C7F0210407F02109C7F0210C87F021092
:103AE0002DE9F04F8146D24AD24B12784800012886
:103AF0008846B9F9005087B003EBC22A40F25682DB
:103B000049462B46A9F1020606EB880631F9024F19
:103B1000A342B8BF2346A542A8BF2546B1421BB267
:103B2000F4D1C5490D80C5490B80C54B93F800E021
:103B3000C44B5FFA8EFE1B78DBB2B8F1000F00F0C9
:103B4000F981002B8EF0010115BF0E4676467446B2
:103B50000C46002509F10207CDE904200297760002
:103B60000AF104076400B84B4FEA4E0E4900039770
:103B700001960094029A39F9254032F925601F78A0
:103B8000A0B2B2B24EEAD47C2FB14FEA4C0707F094
:103B9000020747EA5C0C93F800B0C0F3803747EAAD
:103BA0000E07BBF1000F05D04FEA470B0BF0020BDD
:103BB0004BEA570793F800B047EA8C0CC0F3403744
:103BC00047EA0E07BBF1000F05D04FEA470B0BF099
:103BD000020B4BEA570793F800B047EA8C0CC0F38E
:103BE000003747EA0E07BBF1000F05D04FEA470B3D
:103BF0000BF0020B4BEA570793F800B047EA8C0C26
:103C0000C0F3C02747EA0E07BBF1000F05D04FEA0B
:103C1000470B0BF0020B4BEA570793F800B047EA4B
:103C20008C0CC0F3802747EA0E07BBF1000F05D0CC
:103C30004FEA470B0BF0020B4BEA570793F800B023
:103C400047EA8C0CC0F3402747EA0E07BBF1000F90
:103C500005D04FEA470B0BF0020B4BEA570793F8DE
:103C600000B047EA8C0CC0F3002747EA0E07BBF10F
:103C7000000F05D04FEA470B0BF0020B4BEA57073A
:103C800093F800B047EA8C0CC0F3C01747EA0E0760
:103C9000BBF1000F05D04FEA470B0BF0020B4BEACC
:103CA000570793F800B047EA8C0CC0F3801747EA37
:103CB0000E07BBF1000F05D04FEA470B0BF0020BCC
:103CC0004BEA570793F800B047EA8C0CC0F3401753
:103CD00047EA0E07BBF1000F05D04FEA470B0BF088
:103CE000020B4BEA570793F800B047EA8C0CC0F37D
:103CF000001747EA0E07BBF1000F05D04FEA470B4C
:103D00000BF0020B4BEA570793F800B047EA8C0C14
:103D1000C0F3C00747EA0E07BBF1000F05D04FEA1A
:103D2000470B0BF0020B4BEA570793F800B047EA3A
:103D30008C0CC0F3800747EA0E07BBF1000F05D0DB
:103D40004FEA470B0BF0020B4BEA570747EA8C0789
:103D500093F800C0C0F3400040EA0E00BCF1000F31
:103D600005D04FEA400C0CF0020C4CEA500040EA3F
:103D70008700019F04F001043C431F7827B16700CE
:103D800007F0020747EA540444EA800418784AF826
:103D9000354041EAD23420B1600000F0020040EA30
:103DA00054041F78C2F38030084327B1470007F05E
:103DB000020747EA50001F7840EA8404C2F340300B
:103DC000084327B1470007F0020747EA50001F7871
:103DD00040EA8404C2F30030084327B1470007F0EB
:103DE000020747EA50001F7840EA8404C2F3C0206B
:103DF000084327B1470007F0020747EA50001F7841
:103E000040EA8404C2F38020084327B1470007F04A
:103E1000020747EA50001F7840EA8404C2F34020BA
:103E200008439FB1470007F0020747EA50000DE042
:103E3000D56700205C3C0020BE670020BC670020E6
:103E4000D4670020A41D0020D66700201F7840EA18
:103E50008404C2F30020084327B1470007F002079B
:103E600047EA50001F7840EA8404C2F3C0100843B8
:103E700027B1470007F0020747EA50001F7840EAE1
:103E80008404C2F38010084327B1470007F00207FB
:103E900047EA50001F7840EA8404C2F34010084308
:103EA00027B1470007F0020747EA50001F7840EAB1
:103EB0008404C2F30010084327B1470007F002074B
:103EC00047EA50001F7840EA8404C2F3C000084368
:103ED00027B1470007F0020747EA50001F7840EA81
:103EE0008404C2F38000084327B1470007F00207AB
:103EF00047EA500040EA84001C78C2F340020A43BB
:103F000024B1540004F0020444EA520242EA80025E
:103F1000009806F0010606431878002832D146EAD8
:103F20008206039A42F835600135A8457FF422AE37
:103F3000DDE904201E490B785BB14FF0A0431B69FB
:103F40005A012ED54FF0A04213695B01FCD4194BE6
:103F50001A784FF0A043C3F800A0D8610120154B98
:103F600082F001021A70144A087013680344136047
:103F7000124A136803441360114BC3F8008007B062
:103F8000BDE8F08F700000F0020040EA560040EA01
:103F90008202039840F835200135A8457FF4EAAD48
:103FA000C6E7084A136801331360CBE72B46B8E530
:103FB000D7670020D5670020543C0020503C0020EB
:103FC000583C00205C4C002000282DD04FF0A0432E
:103FD000F0B41649164C097824781B69154E164A18
:103FE000164F04704170164C1649C3F38063126873
:103FF000154D246883700968144B3F68B6F800C0FB
:104000004260A0F814C0B5F800C01B78104A0376CF
:10401000104B12781B78C0E902410761A0F816C066
:1040200042768376F0BC7047704700BFD7670020A8
:10403000D3670020BE670020503C0020583C002081
:10404000543C00205C4C0020BC670020D46700205A
:10405000A41D0020D66700200346003B18BF0123A3
:10406000024A034813701178FDF7AEB8D4670020F8
:10407000308002100346034A034813701178FDF79D
:10408000A3B800BFA41D00204C8002100346034AC1
:10409000034813701178FDF797B800BFD66700206A
:1040A00068800210704700BF2DE9F0472DED048BAA
:1040B000ADF5CB6D684606F0F1FC4FF40043684661
:1040C000BC9306F08DFF002301214FF000089FED07
:1040D000289ADFED288A1D461F46274A2748116087
:1040E000274ADFF8A4A0274EDFF8A090C0F8008090
:1040F0001370CBACEBB207EE903AF8EE677AB0EE05
:10410000087A67EE897A87EE878A204606F8017C6E
:104110003780C6F8037006F0C1FCB4204FF07E5320
:104120004FF0040C0521502238EE288AC4F85801BB
:10413000A5802046013584ED298AC4E95412C4F8CB
:1041400014A0E3612362C4F8B031C4F8B491C4F898
:10415000B881A4F806C006F043FF042D06F1080656
:10416000C8D10DF5CB6DBDEC048BBDE8F08700BF69
:104170009A99193FCDCC4C3EA81D0020A85F002085
:10418000E1670020AD630020AE47613EEC51383F4F
:1041900030B5ADF54D7D01AD0446284606F07EFCF8
:1041A000002328463493ADF8084006F019FF00229A
:1041B000024B23F834200DF54D7D30BDAD6300205A
:1041C00070B5002506460A4BADF54C7D01AC186074
:1041D000204606F063FCA58020460135C4F8D8606F
:1041E00006F0FEFE042DF3D10DF54C7D70BD00BF31
:1041F000A85F00202DE9F0472DED028B554CADF561
:10420000CB6D0646684608EE101A06F047FC637848
:104210006D4613B12278B24278D0627A12B1217A17
:10422000B14275D0617C11B1207CB04272D0607E09
:1042300000284BD1002B6FD06368002A72D0E2684F
:10424000934286BF134601270027002972D0626976
:10425000934284BF13460227002873D0E2699A4232
:1042600038BF032704EBC7035B784FEAC7091FFA7F
:1042700087F8002B38D1DFF8ECA0DFED376A07EEC6
:10428000906AB8EE488AB8EE677AC8EE267A334B61
:1042900028461B6885ED037AC5F8D830C5ED337A1A
:1042A000A5F8048006F09CFE01212D4B04F8376030
:1042B0001A682AF837105018186004EB09035A607E
:1042C0000DF5CB6DBDEC028BBDE8F087277EB742C4
:1042D00008BF0327AED104EBC7035B784FEAC709D9
:1042E0001FFA87F8002BC6D00DF54B7A504606F022
:1042F000D5FB00235046FE93ADF8308306F070FEE8
:104300000023DFF860A02AF83730B6E70027E2E79D
:104310000127E0E70227DEE798461F469946DFF8C7
:1043200044A0AAE74FF001084FF008094746DFF81C
:1043300034A0A2E74FF002084FF010094746DFF81B
:1043400024A09AE74FF003084FF018094746DFF81A
:1043500014A092E7AC6300200000FE42A85F00209A
:10436000A81D0020AD63002008B513F0FDFF4FF439
:10437000807203460621044814F010FF002303490D
:10438000034A0B70137008BD985F0020E36700209C
:10439000E26700202DE9F04F2DED028BB648C1B049
:1043A000FCF712FFFFF792FA002800F05C81B34897
:1043B00020ACFCF709FF204606F030FB082201255F
:1043C0004FF004080026AE4BADF884202A93209BC2
:1043D000229203F47C43702224A968462093CDE9FD
:1043E0002385A84FDFF8CC928DF8866025951DF0C7
:1043F000D3FD94E80F0007F04BFCFFF755FE4FF498
:1044000080734AF6444241469F483D70FCF7DCFE0B
:1044100099F800301E93002B4FD0AC279FED9B8A5C
:104420001D96DFF89482DFF894A2994D994E2146AB
:10443000994814F0FFFE834640B39DF88030062B68
:10444000F5D801A252F823F02B4500103945001091
:104450002F4400102F4400100D450010CB440010D5
:104460006544001000202870FFF792FE0120FFF73E
:104470008FFE0220FFF78CFE0320FFF789FE214606
:10448000854814F0D7FE83460028D6D198F800302E
:10449000002B40F0C5809AF80030002B40F08A8055
:1044A000002F40F0878006F07BFC4FF48071FFF70F
:1044B00017FB99F80030002BB9D1784841B0BDEC1A
:1044C000028BBDE8F04FFCF77FBEBDF882303F2B7A
:1044D0008CBF012300232B70A9D8DFF8E4B19BF82F
:1044E000023013B10020FFF753FE9BF80A3013B1DE
:1044F0000120FFF74DFE9BF8123013B10220FFF7A9
:1045000047FE9BF81A30002BB6D190E7BDF88230F9
:10451000A3F5005307EE903AF8EEE77AC7EE887AF3
:1045200017EE900AFFF74CFE81E79DF884109DF886
:104530008200FFF75FFE7AE7DFF884B19DF88230F2
:104540009BF8012052B19BF800209A4206D12878AE
:10455000002800F0838001228BF802209BF80920BC
:104560004AB19BF808209A4205D12A78002A6FD0D8
:1045700001228BF80A209BF811204AB19BF81020E9
:104580009A4205D12A78002A5CD001228BF81220A9
:104590009BF81920002A3FF44AAF9BF818209A4252
:1045A0007FF445AF2B78002B3FF466AF01238BF8E7
:1045B0001A303CE7DFF80CB14EF67841DBF800E04A
:1045C00041F2883C7246364B03F58060002A1EDBC0
:1045D00019805980043398423244F7D1314B4FF45B
:1045E000807173442E48CBF80030FFF779FA002F22
:1045F0003FF45FAF013F7FF45CAF1D9B002B7FF466
:1046000058AF2948FCF7E0FD1E9B1D9351E7A3F826
:1046100000C0A3F802C0043398423244D6D1DDE78B
:104620002870FFF7B5FD0120FFF7B2FD0220FFF76C
:10463000AFFD0320FFF7ACFD1C4888F800B0FCF785
:10464000C3FD28E702201F93FFF7A2FD1F9B9FE7F2
:1046500001201F93FFF79CFD1F9B8CE71F93FFF723
:1046600097FD1F9B7AE7124841B0BDEC028BBDE875
:10467000F04FFCF7A9BD00BF88800210C480021073
:10468000A5400010E3670020D880021000004047DA
:10469000E1670020B9DF8D02985F00204881021099
:1046A000AC5F002000B9DF8D348102101081021050
:1046B0009C800210AB160020E2670020E467002017
:1046C000AC630020EC3B0020014B1878704700BF22
:1046D000E3670020014B1870704700BFE4670020BB
:1046E000014B1878704700BFE4670020002200B536
:1046F0000C4B83B01B78ADF80200ADF804108DF8B8
:10470000002013B903B05DF804FB6946064814F0B5
:1047100057FD0028F6D10122044B1A7003B05DF852
:1047200004FB00BFE3670020985F0020E2670020E1
:1047300010B5002201240B4B82B01B78ADF80200AB
:104740008DF80040ADF804200BB902B010BD6946E9
:10475000054814F035FD0028F7D1044B1C7002B059
:1047600010BD00BFE3670020985F0020E2670020D3
:10477000022200B50C4B83B01B78ADF80200ADF8F7
:1047800004108DF8002013B903B05DF804FB6946EE
:10479000064814F015FD0028F6D10122044B1A70CA
:1047A00003B05DF804FB00BFE3670020985F0020C2
:1047B000E26700200621002200B50B4B83B01B7876
:1047C0008DF80010CDF8022013B903B05DF804FB9A
:1047D0006946064814F0F4FC0028F6D10122044B87
:1047E0001A7003B05DF804FBE3670020985F0020B7
:1047F000E2670020704700BF704700BF704700BFEE
:10480000704700BF704700BF704700BF704700BFD0
:10481000F0B5ADF2545D14AF0E464022394600F0BB
:1048200059FD002800F0A880037C0546002B40F0CD
:10483000A380534B6C46009306F10B030193514B3D
:10484000029306F10C0303934F4B049306F10D03FF
:1048500005934E4B069306F10E0307934C4B0893BA
:1048600006F10F0309934B4B0A9306F110030B93C8
:10487000494B0C9306F111030D93484B0E9306F12F
:104880002A030F93464B109306F12C031193454BCB
:10489000129306F12D03139302E00834BC4213D0A7
:1048A0002846216800F006FD0028F6D0037C042B82
:1048B000F3D10A22002180681DF0F8F9083454F879
:1048C000043CBC421870EBD12846374900F0F2FC9A
:1048D00010B1037C012B03D000200DF2545DF0BD1C
:1048E0008468002CF8D0257CF5B12468002CF3D026
:1048F000257C6DB32468002CEED0257C002DEBD1F7
:104900002A49204600F0D6FC2046294900F0D2FC76
:104910000028E1D0037C042BDED10A2229468068DE
:104920001DF0C4F97072D7E72049204600F0C2FCA0
:1049300020461F4900F0BEFC0028D6D0037C042B83
:10494000D3D10A22294680681DF0B0F97071CCE7F6
:104950001649204600F0AEFC2046154900F0AAFC9E
:104960000028C7D0037C042BC4D10A2229468068C2
:104970001DF09CF9F071BDE74FF0FF30ADE700BFCF
:104980005881021060810210708102107C81021037
:104990008881021090810210A0810210A88102106B
:1049A000B0810210BC810210CC810210707D021017
:1049B000D08102102DE9F04FAF49ADF6DC0D054670
:1049C0001DF0A6F9002869D02846AC491DF0A0F9D1
:1049D000002800F0BD802846A9491DF099F900285B
:1049E00000F0BF802846A7491DF092F9002800F08A
:1049F000A5802846A4491DF08BF9002800F0BB8053
:104A00002846A2491DF084F9002800F0B880284605
:104A10009F491DF07DF9002800F0B58028469D498A
:104A20001DF076F9002800F0B38028469A491DF061
:104A30006FF90446002800F0E980284697491DF0E8
:104A400067F9002800F0FB80284695491DF060F9C1
:104A50000446002800F0FF80284692491DF058F9CE
:104A60000446002800F03E81062228468E491CF0AC
:104A7000BBFE0446002800F09180122200208B49E2
:104A800019F080FA02220020894919F07BFA0020EF
:104A90000DF6DC0DBDE8F04F19F02CBA16AD04464A
:104AA0002846FFF791FAFCF78BFB804618F052FB83
:104AB000814618F03FFB8246204619F0AFF90346C5
:104AC00020461C4619F078FC0646FFF7FDFD074618
:104AD000FFF706FE05909DF87200CDE902461190A1
:104AE0009DF871009DF8594010909DF87000434664
:104AF0000F90BDF96E004FF400710E90BDF96C007F
:104B0000CDE9009A0D901A986A4A0C90199804976A
:104B10000B9018980A90179809909DF85A000890E1
:104B20009DF85800CDE9060436A817F07FFE36A898
:104B3000FCF788FC0DF6DC0DBDE8F08F0120FFF7D7
:104B400099FA5D480DF6DC0DBDE8F04FFCF77ABC34
:104B5000FFF782FA59480DF6DC0DBDE8F04FFCF77F
:104B600071BC0120FFF778FA55480DF6DC0DBDE861
:104B7000F04FFCF767BCFFF77DFA5248E2E7FFF71A
:104B800085FA5148DEE70120FFF780FA4F48D9E760
:104B90000DF6DC0DBDE8F04FFCF796BC4C4E7022D4
:104BA0000635314616A81DF0F7F940F2FF312846C8
:104BB0001CF086FE2946054636AB2A4618461DF0EF
:104BC000EBF916A94455FFF723FE0546002840F0EF
:104BD000FB8016A9702230461DF0DEF996F82B00F6
:104BE000FEF7BAFCFEF798FA96F82A00FEF766FE82
:104BF0000D222846374919F0C5F9022228462C49CA
:104C000019F0C0F9284619F075F993E7FFF768FD28
:104C100020210346304A36A817F008FE36A81DF0BA
:104C200031FA0246204636A919F0ACF90222204694
:104C30001F4919F0A7F9204619F05CF97AE7244BCF
:104C400093F82A00FEF73AFE0120FFF743FD0A22FF
:104C50000020224914E71E4B93F82A00FEF72EFE8F
:104C60002046FFF737FD0A221D49204619F08AF930
:104C7000022220460E4908E7D8820210088402105A
:104C80002C84021050840210708402109084021050
:104C9000B4840210D4840210D8840210EC84021070
:104CA0000085021018850210208502104C85021024
:104CB000307B0210E082021060840210188402101F
:104CC0003C84021080840210A4840210C484021068
:104CD000AC16002028850210E0840210F484021033
:104CE0000C850210DFF8F8C016A89CF80B309CF871
:104CF0000C2013939CF809309CF80D1004939CF839
:104D00000830149203939CF80730314A02939CF8C0
:104D10000630159101939CF80530802100939CF892
:104D20000E509CF80F609CF810709CF804309CF8B2
:104D300011809CF82A909CF82CA09CF82DB017F0BC
:104D400075FD159913980395149DCDE9046736AF49
:104D5000204A16AB029100904FF400613846CDE92D
:104D600008ABCDE90689019517F060FD38461DF0C6
:104D700089F90646C8B100214FF0FF3018F06CFAEF
:104D8000002019F01FF983B2351B3919B3B180B275
:104D9000854228BF054600202A4619F0F3F82C4426
:104DA000002019F0A7F8A642E5D802220A490020FF
:104DB00019F0E8F8002019F09DF8BBE6012013F087
:104DC000D3FFB442D7D3F0E71022204603492BE7A4
:104DD000D881021034820210307B02103885021014
:104DE000AC1600200378002B4DD010B402460146CB
:104DF000264C05E0104601F8013B4378421CC3B144
:104E0000222B02F101002FD05C2BF3D15378752BAC
:104E100013D0222BEFD05C2BEDD02F2BEBD0622BBD
:104E200027D0662B27D06E2B27D0722B27D0742B40
:104E300027D000205DF8044B70479378E35C13F0B3
:104E4000440FF6D0D378E35C13F0440FF1D013791C
:104E5000E35C13F0440FECD05379E35C13F0440FA0
:104E6000E7D03F23501DC6E700230B705DF8044BCD
:104E700070470823BFE70C23BDE70A23BBE70D23D8
:104E8000B9E70923B7E70020704700BF61040710A6
:104E9000012340F8043C50F80C0C704750E9022301
:104EA000934209D250F80C2C591C03EB830340F8B1
:104EB000041C02EB830070470020704710B502F11C
:104EC000FF3C03E010F801EB964518D11CF8012FC8
:104ED000002AF7D190F800C0BCF12C0F11D00F4C74
:104EE00001E094450DD014F8012B002AF9D10C4CA7
:104EF00001E0944505D014F8012B002AF9D10020D7
:104F000010BD074C01E0944505D014F8012B002A90
:104F1000F9D100F8012B0B7410BD00BF60850210A1
:104F2000688502102DE9F84F8046164618F8012BC7
:104F30004FF0000B7B3A18BF01220D460A744478EB
:104F4000002C71D09E4F3A4601E0A3426FD012F878
:104F5000013B002BF9D198F800302C2B7CD02A7C17
:104F6000002A14BF5D227D22934268D030467368C8
:104F700098478146002857D02B7C012B71D098F898
:104F80000030222B50D108F10100C9F80400FFF7CE
:104F900029FF002848D00478002C45D03A4601E08B
:104FA000A3423DD012F8013B002BF9D103783A2BF4
:104FB0003AD14478002C37D000F101083A4601E09C
:104FC000A34237D012F8013B002BF9D1AB68C9F8E6
:104FD00000B0002B4CD0EB68C3F80090C5F80C90E3
:104FE000C9F8088098F80030222B4BD0A3F15B025F
:104FF000D0B2202854D8202A52D8DFE802F0C55178
:10500000515151515151515151BD51515151515124
:1050100051B55151515151A75151515151519A00CE
:1050200010F8014F002CB9D10020BDE8F88F18F816
:10503000014F85E718F8014F002CBFD1F4E7404637
:1050400000F801BB2B68002BEFD0C5F800B098F832
:1050500001401D46804673E798F8014008F10108B9
:105060006EE7AB68C0F804B0C9F800B0002BB2D14D
:10507000C5F80890C5F80C90C9F8088098F8003079
:10508000222BB3D108F10100C9F80800FFF7AAFEEE
:1050900080460028C8D0022389F8103004784FE7F2
:1050A0002D2B08BF98F80130464A18BFC246D05C85
:1050B00008BF08F1010A410700F00404B4D5302B01
:1050C00000F0B180002BAFD044B11AF8013F002BA3
:1050D000AAD0D05C00F00404002CF6D1042389F897
:1050E00010309AF800402E2C00F0AB8004F0DF0066
:1050F000452871D02C2C56D198F80020AAEB080333
:105100002D2A00F0BE80132B8ED800F0CD80D04623
:105110009AF800402C4A02E0A3423FF413AF12F881
:10512000013B002BF8D1D04608F8013B9AF801402A
:1051300006E70023C9F8005008F1010889F810308B
:10514000C9F808304D4698F80040F9E6404649460F
:1051500003231E4AFFF7B2FE8046B8F1000F3FF46A
:1051600063AF98F80040EBE6404649460623184AEC
:10517000FFF7A4FE8046F0E7404649460323154A60
:10518000FFF79CFE8046E8E701230022C9F80050A3
:10519000C9F8082089F8103098F801404D46984425
:1051A000CEE6A2423BD017F8012B002AF9D1064ADD
:1051B00001E0A14233D012F8011B0029F9D133E7F5
:1051C0006085021061040710688502106C8502106A
:1051D0007C850210748502109AF801302D2B2BD09B
:1051E0002B2B29D00AF1010AD35C59077FF51CAF9C
:1051F0009AF801300AF1010A2BB915E71AF8013FB4
:10520000002B3FF411AFD35C5B07F7D4052389F87B
:1052100010309AF800402C2CC5D1D0467AE7042BE8
:105220007FF475AF68E79AF801300AF1010AD35CA0
:105230005B073FF5F9AE51E79AF802300AF1020A2E
:10524000D2E79AF80130D35C5C077FF5EDAE9AF8AF
:1052500002300AF1020A2BB9E6E61AF8013F002BE8
:105260003FF4E2AED35C5807F7D4052389F8103039
:105270009AF8004004F0DF004528ADD02C2C92D1E4
:1052800045E7142B3FF6D0AE7FF441AF074800232B
:1052900041468AF800301CF03BFD0028FFF6C4AE02
:1052A000D0468AF8004035E70148F0E7AC550410D5
:1052B0009855041038B584684CB10D46606818B133
:1052C00029461CF025FD10B12468002CF6D120469B
:1052D00038BD00BF30B5174B174C87B0CDE903433D
:1052E00004780D460192009164B1144A01E0A34292
:1052F0000CD012F8013B002BF9D1027802F0DF024A
:105300005B2A08D00025284607B030BD10F8014FB1
:10531000002CEAD1F6E701242946C5E90033AB6049
:1053200003AA0294FFF7FEFD0028EBD0284607B041
:1053300030BD00BF9D4E0010914E001060850210E0
:105340002DE9F04F8DB0DDF858E00C469EF8006076
:105350009EF8015016F0070118BF01219DF85CC0AE
:1053600001EBD601002D7DD000297BD026461446C6
:1053700003EB06081A46631E002408930EF104038B
:105380000B444FF001092646079377462B466446A7
:105390000D464FEAC20BA9EB020A97F803C0A8EB2F
:1053A000020EA4EB0C0C03FB0C6C089B05FB0CFC25
:1053B00013440193079B0CF104019C44019B394465
:1053C0000995CDF810E00A9616970B9411F8015F35
:1053D0001F460824CDE9051306E0013C14F0FF0444
:1053E0004FEA550517442ED0EB07F6D50AEB070612
:1053F000002AF2D0CDE90165DDF810E00394019BAD
:10540000058803F00701AE454FEAD30409FA01F11C
:105410000CD24688B34205D205FB04E405692E5D33
:1054200031432955BB4201D00133E9E70EF1010EAA
:10543000C645E4D1DDE90254013C14F0FF044FEA13
:1054400055051744D0D1DDE9051361455B44BDD155
:10545000DDE90956169F01367B78F1B299420B9C23
:1054600090449AD30DB0BDE8F08F00BF00394FF0E3
:10547000150318BF012141EC403070470021D0E9ED
:1054800004021CF0CFB800BF2DE9F04F1E4683B0D8
:105490000C9B771AA3EB020ABAF1000FB8BFCAF14E
:1054A000000A002FB8BF7F429342D4BF4FF0FF33B2
:1054B00001238E42D4BF4FF0FF3B4FF0010B01930D
:1054C000CAF10008A7EB0A0C03884FEA4C05994281
:1054D00013D24488A24210D24FF00109D40803FB32
:1054E0000414D0F810E002F0070309FA03F31EF8E1
:1054F000049043EA09030EF80430B1420BD0B8EB34
:105500004C0F04DCAF42ACEB0A0C5944DCDB019BD2
:10551000BC441A44D8E70C9B9A42F0D103B0BDE8D2
:10552000F08F00BF2DE9F04383B0DDE90A573C78E6
:10553000CCB10E4691469846EB78A34209D82B7918
:10554000A34206D343464A463146CDE90054FFF70D
:10555000F7FE95F801C0AB7817F8014F9C4408FBA3
:105560000C66002CE8D103B0BDE8F0832DE9F04FC4
:1055700083B00C9E3478FCB19A460D469346DFF812
:10558000408098F8017098F8023098F803901F4412
:105590000AFB07F74C450AD398F80430A34206D318
:1055A00053465A462946CDE90084FFF7C9FE16F84E
:1055B000014F3D44002CEDD103B0BDE8F08F00BF9A
:1055C000C45504102A232DE9F04F4FF40852002748
:1055D00087B08DF80F30038B4FF01009013B8DF829
:1055E00013301B0A8DF81230438B044621335BBA0B
:1055F000ADF81070ADF81420ADF8163047EC4090BF
:10560000112547EC405001220DF10F01534822F0C3
:1056100023F94FF0010848EC405048EC409047EC2B
:10562000405004220DEB09014C4822F015F948ECDA
:1056300040502B238DF80F3047EC409047EC405002
:1056400001220DF10F01454822F006F948EC4050C7
:1056500048EC409047EC4050042205A93F4822F016
:10566000FBF848EC40502C238DF80F3047EC40906D
:1056700047EC405001220DF10F01384822F0ECF8C0
:1056800048EC405048EC409047EC4050638B002B76
:1056900047D0334DDFF8D0806E1C38F9022B002A3A
:1056A00047DB218CB4F81CC0238B8C441FFA8CFC84
:1056B00063B300234FF0010E02F00700C2F3CC09E0
:1056C0000EFA00FE1A46019709E05A00010AA95491
:1056D000B054218B01339AB2914216D9218C914258
:1056E000E08CF2D894454FEA4302EFD9B4F800B009
:1056F00021691C4F09FB0B1137F813A011F80A1090
:1057000011EA0E0F18BFA08CE0E7019F4FF4207242
:105710002946124822F0A0F80137628BBBB29A42A8
:10572000BBD811234FF0010242EC403007B0BDE876
:10573000F08F0022E08C0A4B4FEA102C6CF307022A
:10574000C0B260F30F226CF3174203F5207160F3CF
:105750001F6243F8042B8B42FBD1D7E700000840BF
:10576000185D0020D8630020586600202DE9F04F16
:10577000644C85B025788A4604469346019500938B
:10578000002D00F0C980009B4FF4A07963710BEBF2
:105790008B039B01B3FBFAF35B4A9FB2A2610E9AA3
:1057A000AC2FA2600BF107024FEAD202A4F800A0CE
:1057B000A4F802B02271A4F81C907CD80025A84659
:1057C000C7F1AC06E783C6F34F064FF6FF73D2B2BC
:1057D0000AFB02F00121258466846061636215F092
:1057E0008FFC2061002800F0CA84374409EB050BC8
:1057F000BFB21FFA8BFB002D71D1444A1FFA88F308
:10580000EB1A00200AFB03F302EB45020AF1FF3C0E
:105810000FE0B3FBF9F189B28A4594BFA2F800C04A
:1058200011800135ADB2B5F5A07F02F102025344FB
:1058300003D0AB45EDD81080F3E700224FF6FF759B
:105840001146334817E08F4219D96688E18B06FB71
:1058500003F3B3FBF1F3038061889BB28B4224BF57
:1058600001F1FF310180638B013291B28B4200F173
:10587000020006D9668CB142A2EB0603E3D2058092
:10588000F1E70022E08C234B050A65F30702C0B262
:1058900060F30F2265F3174203F5207160F31F6276
:1058A00043F8042B8B42FBD12046FFF78BFE0120EF
:1058B00005B0BDE8F08FAC2707FB0AF9B9FBFBF98F
:1058C0001FFA89F5C5F5A0751FFA89F94FEA550841
:1058D0000026E783A4F81C90C5F34F0575E7B5F5DE
:1058E000A07F2B4628BF4FF4A073002107485A0021
:1058F00000931BF097FEB5F5A07F9ED2009B1D463E
:105900007BE700BFDF6700204001AC00D8630020C8
:1059100058660020185D0020142012F02DFC4FF076
:105920000108142348EC4430102012F025FC4FF0FD
:10593000100948EC4490112012F01EFC112548EC8F
:105940004450152012F018FC152348EC443048EC64
:1059500040509DF8047047EC409048EC4030B2490C
:10596000B24819F06BFA4146122012F0D3FB4146BF
:10597000132012F0CFFB142248EC4020642013F0D7
:10598000F3F9142247EC4020642013F0EDF91422BF
:1059900048EC4020642013F0E7F98DF80F5047ECF5
:1059A000409047EC4050A14842460DF10F0121F0D4
:1059B00053FF48EC4050782013F0D6F94FF03602F0
:1059C0008DF80F2047EC409047EC405097484246F6
:1059D0000DF10F0121F040FF48EC405070238DF88D
:1059E0000F3048EC409047EC4050904842460DF153
:1059F0000F0121F031FF48EC40503A238DF80F3071
:105A000047EC409047EC4050884842460DF10F016A
:105A100021F022FF48EC40504FF005018DF80F10A7
:105A200048EC409047EC40500DF10F0C4246614667
:105A30007E4821F011FF48EC4050B2238DF80F3022
:105A400047EC409047EC40500DF10F0C4246614648
:105A5000764821F001FF48EC40500C238DF80F30C0
:105A600048EC409047EC40500DF10F0C4246614627
:105A70006E4821F0F1FE48EC40500C238DF80F30B9
:105A800048EC409047EC40500DF10F0C4246614607
:105A9000664821F0E1FE48EC4050019B8DF80F3044
:105AA00048EC409047EC40500DF10F0C42466146E7
:105AB0005E4821F0D1FE48EC40504FF033028DF8A3
:105AC0000F2048EC409047EC40500DF10F0C42463F
:105AD0006146564821F0C0FE48EC40504FF033027A
